:020000040800F2
:1000000048040020B5110008650F0008670F0008BC
:10001000690F00086B0F00086D0F0008000000005A
:100020000000000000000000000000006F0F00084A
:10003000710F000800000000730F0008750F000822
:10004000D1110008D5110008D9110008DD110008F0
:10005000E1110008E5110008E9110008ED110008A0
:10006000F1110008F5110008790F0008F9110008D6
:10007000FD1100080112000805120008091200080D
:100080000D12000811120008850F00080000000082
:10009000000000000000000000000000B30F000896
:1000A00015120008191200081D120008211200087C
:1000B000BF0F000825120008291200082D120008A1
:1000C0003112000835120008391200083D120008EC
:1000D0004112000845120008491200084D1200089C
:1000E00051120008551200085912000800000000C3
:1000F0000000000000000000000000000000000000
:1001000000000000000000000000000000000000EF
:100110000000000000000000C90F0008DD0F00080B
:10012000012200F01F01DFF88C358A40400943F8B6
:10013000202070470901020007D5DFF87C2500F078
:100140000F00104400F8041C7047DFF87035195494
:10015000704700F0070010B5C0F10703052B28BF5A
:100160000423041D072C34BF0020C01E012404FA00
:1001700003F35B1E1940814004FA00F0401E10405A
:10018000084310BD8B0910B52C3003F00C03181870
:1001900001F01F0104681F238B4002F01F029C43E3
:1001A00002FA01F12143016010BDCB0D10B50C30F6
:1001B00003F004031818090D01F01F010368072458
:1001C0008C40A34302FA01F11943016010BDDFF82E
:1001D000F01401E0DFF8EC1481B00A6802430A6011
:1001E000096808400090009801B070472DE9F84F69
:1001F0008CB000F0ADFA00F065F9DFF8CC44A068EF
:1002000040F00400A060A068800810F00100FAD15E
:1002100000F0F8F90FF23050DFF8B054D0E9006088
:10022000CDE90060142102A800F09EFA07A800F0B2
:10023000E6F94FF40070FFF7CDFF0820FFF7CAFF83
:1002400040F2033107910022089207A9DFF88004E9
:10025000DFF8806400F0AEFA00F02EF901461220BB
:10026000FFF768FF1220FFF75BFF002100914FF4BA
:10027000807201926946204600F0E0FA4FF4602057
:10028000022102900391002204920592069202A993
:10029000204600F0E8FA32464FF400712046FFF79E
:1002A00071FF00F005F9DFF83064324640F20521B5
:1002B0002046FFF767FF00F0FBF800F09FF91020E1
:1002C000FFF785FF00F0F8F801463620FFF732FF10
:1002D0003620FFF725FF41F63F700021ADF8000002
:1002E00001914FF47A7202926946DFF8F06330466A
:1002F00000F0E2FA306820F080003060716821F090
:1003000070017160B06820F08000B06000F00EF9FC
:1003100000F074F92020FFF75AFF00F0CDF80146F5
:100320003720FFF707FF3720FFF7FAFEC72000212D
:10033000ADF800000191C82202926946E84D2846B6
:1003400000F0BAFA2868E74BDFF89CB3DFF89CC3EB
:10035000DFF89CE3DFF89C83DFF89C93DFF89CA335
:1003600020F080002860696821F070016960A86849
:1003700020F08000A860606840F020006060A06805
:1003800040F00100A060DE4CF06840F00100F06039
:10039000316841F0010131600A26E86840F001004F
:1003A000E860296841F0010129604FF08041D54D96
:1003B000086A40F480700862C86840F00100C860B4
:1003C0000A6842F001020A60CF4ADAF80000C9F870
:1003D0000000D8F80070CEF80070D9F80000DEF800
:1003E0000070C01BCCF80000C84FDCF800003F686C
:1003F0007843C74F386040F6B8304863DBF80000F8
:1004000040BBDAF800704FF47A70B7FBF0F00A27BF
:10041000B0FBF7F706FB170028606427DAF8000046
:10042000B0FBF7F00A27B0FBF7F706FB17002060D8
:100430000A27DAF80000B0FBF7F0B0FBF7F706FB8D
:10044000170018600A27DAF80000B0FBF7F706FB80
:1004500017001060DBF800000128B6D1D8F8007052
:100460004FF47A70B7FBF0F00A27B0FBF7F706FB02
:10047000170028606427D8F80000B0FBF7F00A27BF
:10048000B0FBF7F706FB170020600A27D8F800003A
:10049000B0FBF7F0B0FBF7F706FB170018600A2770
:1004A000D8F80000B0FBF7F706FB170010608CE7E8
:1004B00000223146204678E6286800220021C0F359
:1004C000022046E638B5934C206820F0F80040F052
:1004D00080002060216841F00101216020688007D0
:1004E000FCD5616821F0F0016160606820F4E06093
:1004F0006060606820F46050606060688008800020
:100500006060606810F00C0FFBD1834D284600F04E
:1005100021FB8248016841F004010160284600F097
:1005200025FB606820F44040606031BD10B592B09A
:1005300005A800F064F80AA8202100F015F900F0E1
:100540005DF80120FFF743FE60480068FFF7B5FF44
:1005500001461C20FFF7EEFD1C20FFF7E1FD002106
:10056000ADF8141000224FF44861079106920892EA
:1005700005A94FF0804000F09FF94FF080440AAA8F
:10058000206820F080002060A16865480140A160DB
:100590006020E16941F00801E1610A9000210B91BE
:1005A0000C910D910E9120464FF4807100F0C6F928
:1005B000E06920F00400E061606820F07000606095
:1005C000A06820F08000A0600820FFF703FE5549D6
:1005D00000910922019202210291002203926946B0
:1005E0003B4800F0E7F85048016821F44071016091
:1005F000026842F40072026012B010BD6846142115
:1006000000F0B2B830B585B06846102100F0ACF803
:100610002C48464D046844F02004046001682C4CCA
:1006200001F0200104910499026842F00402026082
:10063000036803F0040304930499026842F008027B
:1006400002600022006800F008000490FF21049876
:10065000284600F054FB00224FF47041204600F081
:100660004EFBFF2100F066F8284600F087FA4FF4B1
:10067000704100F05FF8204600F080FA30202C49ED
:1006800000900191012202926946204600F076FA1C
:10069000002200210A2000F077FB0A2000F091FBE5
:1006A00000220021172000F06FFB172000F089FBCB
:1006B00005B030BD00E100E018ED00E000E400E02E
:1006C0001C10024018100240002401400CED00E014
:1006D000000C0140080080030900B0030010004036
:1006E000001400401C0000204400002040000020B6
:1006F0003C00002030000020380000202C000020AA
:10070000180000201400002020000020000000201D
:10071000340000200010024000127A0010E000E0D7
:10072000F8BFFFFF0400040404000140000801407A
:100730000000211000910122019200210291022269
:1007400003926946704700000000000000000000AE
:1007500080B5032000F00BFB002000F05DFB00F0F3
:100760007BFB002002BD0000002200F097BB0000D0
:1007700030B500F010F80F2503E030B500F00BF8AD
:1007800003259B00B1FA81F19D408900AC438A406A
:100790002243026030BD00EB116091FAA1F3B3FA7D
:1007A00083F391FAA1F10468704730B5FFF7F3FFC6
:1007B0000425E6E72DE9F0410D4604462E68360291
:1007C000360C96FAA6F0B0FA80F7FFB236FA07F0C8
:1007D00031D0C0072DD5082F07D34FF00110A7F156
:1007E0000801884040F0806803E040F2011000FA00
:1007F00007F86A6841462046FFF7BAFF2869E168B2
:100800004FEA1822914392FAA2F2B2FA82F2904091
:100810000843E0606868012818BF092809D1AA6860
:1008200041462046FFF7A9FFEA6841462046FFF708
:10083000BCFF7F1CCAE70120BDE8F08130B502464D
:1008400001209368DC070CD455684B6825F480754B
:100850001D4355609468096824F400640C43946057
:1008600030BD002030BD70B583680122DC071DD487
:100870004B6833B145688C6825F468452B432343A6
:1008800002E0436823F4684343608668094D0B68BF
:10089000CC682E401E430B6926431E438660C46A03
:1008A000496824F470040C43C46200E0002210463E
:1008B00070BD0000FDFEF1FFF0B5DFF880E20368D7
:1008C000DFF88C42DFF88452DFF87C62DFF8747264
:1008D000DFF86CC2704518BFB0F1804F03D060459F
:1008E00018BFB84209D14A6823F07003134370451A
:1008F0001CBFB0F1804F604507D0B84218BFB0426E
:1009000003D0A84218BFA04203D1CA6823F44073A1
:100910001343036070458A68C26218BFB0420A88F8
:10092000826203D0A84218BFA04201D1097C0163B2
:10093000416941F0010141610120F0BD2DE9F04123
:100940000B4611460022012BDFF80442DFF8FC5170
:10095000DFF8F461DFF8E48108D0102B3DD0B3F567
:10096000807F3DD0B3F5805F3ED069E0026A5208D7
:1009700052000262036AD0F804E087690A6827F02F
:100980007307174323F002020B691A4353084A689E
:10099000404518BFB04242EA430C03D0A84218BFFA
:1009A000A04212D14A692CF0080343EA820222F0E5
:1009B00004038A6843EA820C8A692EF480731A431E
:1009C000CB6922F4007242EA430EC0F804E087616A
:1009D000C9684163C0F820C031E000F034F801E09C
:1009E00000F06FF802462BE0026A22F480520262A5
:1009F0004045076A4268C369D1F800E023F4E64342
:100A000043EA0E23D1F810E027F4005747EA0E37E7
:100A1000D1F804E027F4805718BFB04247EA0E37F8
:100A200003D0A84218BFA04204D18C6922F48042AE
:100A300042EA84124260C361C9680164076201220C
:100A40001046BDE8F08170B5026A3C4E22F01002FB
:100A50000262B042026A446883690D6823F4E64387
:100A600043EA05230D6922F0200242EA05124D688F
:100A700022F0100242EA05121CBF334DA84205D0F5
:100A8000324EB0421CBF324DA84213D14D6922F004
:100A9000800242EA85128D6822F0400242EA851205
:100AA0008D6924F4806444EA8504CD6924F40064EB
:100AB00044EAC50444608361C9688163026201201D
:100AC00070BD70B5026A22F480720262036A4568E2
:100AD000C4690A680E6924F07304144323F4007394
:100AE00043EA06234A68154E23F4807343EA02233F
:100AF000B0421CBF144A904205D0144EB0421CBFF5
:100B0000134A904213D14A6923F4006343EA8223D3
:100B10008A6823F4806343EA82238A6925F4805536
:100B200045EA0215CA6925F4005545EA42154560B3
:100B3000C461C968C1630362012070BD002C01401B
:100B40000004004000080040004001400044014013
:100B5000004801404FF47A720649B0FBF2F0401EA3
:100B6000486000238B6005200860704702490860D8
:100B70007047000010E000E0100000202DE9F8436D
:100B8000024600200025644BDFF8909101270E6893
:100B9000AF403E40BE4240F0AC804C686CB3012C8C
:100BA00020D0022C23D0032C32D0112C1CD0122C9C
:100BB00020D0DFF86CE174451CBFDFF868E17445B4
:100BC0001BD0DFF864E174451CBFDFF860E17445B9
:100BD00013D0DFF85CE174451CBFDFF858E17445C1
:100BE0000BD016E0C86814E0C868001D11E0C868A2
:100BF00008300EE0C8680C300BE0886808B90420A3
:100C000007E0012819BF082057610820176100E09C
:100C10000020B6F5807F03D294464FEA850E05E0AA
:100C2000A5F1080402F1040C4FEA840E0F27DCF84A
:100C3000008007FA0EF428EA040400FA0EFE4EEAD9
:100C40000404CCF800404C68E40052D5D9F80040C8
:100C5000DFF8E4E044F00104C9F800404FEA950CE5
:100C6000D9F8004004F0010400944FEA8508009C84
:100C70005EF82C4008F00C0807FA08F724EA07078A
:100C80002E4CA24208BF00240ED02D4CA24208BF19
:100C9000012409D02B4CA24208BF022404D02A4CC4
:100CA000A2420CBF0324042404FA08F427434EF89C
:100CB0002C70F7434C68E4031C684CBF34433C4041
:100CC0001C604C68A4035C684CBF34433C405C60CF
:100CD0004C68E4029C684CBF34433C409C604C68C8
:100CE000A40203D5DF683E43DE6002E0DE683740E1
:100CF000DF606D1C0F2D7FF649AFBDE8F18302B9AF
:100D0000090401617047114A136803421CBF106057
:100D100000F01EB8704700000004014018100240A7
:100D2000000011100000121000002110000022101D
:100D3000000031100000321008000140000801409E
:100D4000000C014000100140001401401404014057
:100D5000704700000901020006D5294A00F00F0083
:100D6000104400F8041C7047264B19547047264B5A
:100D700019684FF6FF020002114000F4E0600843DA
:100D8000224908431860704738B51F4B1C68C4F3EC
:100D90000223C3F10704052C28BF04241D1D072DC1
:100DA00034BF0023DB1E012505FA04F4641E214034
:100DB000994005FA03F35B1E1A401143BDE8344025
:100DC000C8E7012200F01F01114BFFE78A404009EC
:100DD00043F82020704710B5401EB0F1807F01D34A
:100DE000012010BD0B4C60600F214FF0FF30FFF76A
:100DF000B1FF0021A16007202060002010BD00008D
:100E000018ED00E000E400E00CED00E00000FA0561
:100E100000E100E010E000E038B50D4D0D4B2A7800
:100E200004464FF47A711868B1FBF2F2B0FBF2F0AD
:100E3000FFF7D1FF50B9102C08D2002221464FF005
:100E4000FF30FFF7A1FFAC60002032BD012032BDB2
:100E500004000020100000200E4881B0016841F01D
:100E600001010160026802F00102009200994268EB
:100E700042F080524260406800F08050009000983C
:100E80000548016821F0E06141F00071016001B0A6
:100E9000704700BF181002400400014000B500BFB9
:100EA000130096469446103928BFA0E80C50FAD893
:100EB0005FEA417C28BF0CC048BF40F8042BC9073B
:100EC00028BF20F8022B48BF00F8012B00BD00000E
:100ED00038B50446614D0022FF212846FFF70FFF79
:100EE000102C3ED8DFE804F0090C0F1215181B1E59
:100EF000362124272A2D3033360001223F212BE0D2
:100F00000122062128E001225B2125E001224F2158
:100F100022E0012266211FE001226D211CE0012256
:100F20007D2119E00122072116E001226F2113E043
:100F30000122772110E001227C210DE001223921DC
:100F40000AE001225E2107E00122792104E001226A
:100F5000712101E001227F212846BDE83840FFF7DA
:100F6000CEBE31BD7047FEE7FEE7FEE7FEE7704705
:100F70007047704700F092B839490020086010208F
:100F8000FFF7C1BE37496FF002020A60364A1068A7
:100F900028B9C86C354980B20860012007E01368A1
:100FA000012B05D1C86C324980B208600020106066
:100FB00070472B49012008602020FFF7A4BE2D496F
:100FC0006FF00100086070472B496FF00100086066
:100FD0002A48026842F4A0020260704770B52849AE
:100FE000284C294D6FF001000860012226684FF45B
:100FF00070412846FFF783FE06F00306032E15D83E
:10100000DFE806F00E0A060200224FF400410AE073
:1010100000224FF4804106E000224FF4005102E02C
:1010200000224FF480512846FFF769FE206800F047
:10103000030003280ED8DFE800F002050709134972
:10104000086805E0124802E0124800E01248006813
:10105000FFF73EFF2068401C206070BD0008014083
:101060004400002000240140280000202C00002023
:101070003000002010000040101000400824014003
:101080001014004024000020000C01401400002037
:10109000180000201C0000202000002002494A689F
:1010A000087882184A6070470400002010B50F4A83
:1010B0000F49106840F00100106053680D480B4064
:1010C0005360146804401460116821F48021116099
:1010D0004FF41F01506820F4FE0050609160002022
:1010E000D0624FF00061044A116010BD0010024050
:1010F0000000FFF8FFFFF6FE08ED00E030B50168E4
:1011000084684218416802EB5103C9070BD54C446F
:1011100009E012F9011B12F8015B002904F8015BD8
:1011200005D5491CF9D19A42F3D10C3030BD491E86
:10113000F1D5F8E710B5074979441831064C7C44DD
:10114000163404E00A68081D114488470146A1428C
:10115000F8D110BD0800000014000000A1FFFFFF3F
:10116000FC000000240000000000002000F00DF84A
:10117000002801D0FFF7DEFFAFF300800020AFF3BF
:101180000080FFF733F800F002F80120704700F00C
:1011900001B800000746384600F002F8FBE70000FF
:1011A00080B5AFF30080024A11001820ABBEFBE708
:1011B000260002000148804701480047AD100008A2
:1011C000C5110008AFF30080AFF30080FFF7CEFF3A
:1011D000FFF7FEBFFFF7FEBFFFF7FEBFFFF7FEBF43
:1011E000FFF7FEBFFFF7FEBFFFF7FEBFFFF7FEBF33
:1011F000FFF7FEBFFFF7FEBFFFF7FEBFFFF7FEBF23
:10120000FFF7FEBFFFF7FEBFFFF7FEBFFFF7FEBF12
:10121000FFF7FEBFFFF7FEBFFFF7FEBFFFF7FEBF02
:10122000FFF7FEBFFFF7FEBFFFF7FEBFFFF7FEBFF2
:10123000FFF7FEBFFFF7FEBFFFF7FEBFFFF7FEBFE2
:10124000FFF7FEBFFFF7FEBFFFF7FEBFFFF7FEBFD2
:10125000FFF7FEBFFFF7FEBFFFF7FEBF000AFD006E
:0E1260000001F9000010FC0002366E01CC0007
:04000005080011C519
:00000001FF
