:020000040800F2
:1000000088040020FD1900089516000897160008BE
:10001000991600089B1600089D16000800000000B5
:100020000000000000000000000000009F16000813
:10003000A116000800000000A3160008A51600087D
:10004000191A00081D1A0008211A0008251A0008AC
:10005000291A00082D1A0008311A0008351A00085C
:10006000391A00083D1A0008A9160008B51600083C
:10007000411A0008451A0008491A00084D1A0008DC
:10008000511A0008551A0008B716000800000000B1
:10009000000000000000000000000000E116000861
:1000A000591A00085D1A0008611A0008651A00084C
:1000B000ED160008691A00086D1A0008711A000888
:1000C000751A0008791A00087D1A0008811A0008BC
:1000D000851A0008891A00088D1A0008911A00086C
:1000E000951A0008991A00089D1A000800000000DF
:1000F0000000000000000000000000000000000000
:1001000000000000000000000000000000000000EF
:100110000000000000000000A11A0008E517000818
:10012000012200F01F01DFF8A0348A40400943F8A3
:10013000202070470901020007D5DFF8902400F065
:100140000F00104400F8041C7047DFF88434195481
:10015000704700F0070010B5C0F10703052B28BF5A
:100160000423041D072C34BF0020C01E012404FA00
:1001700003F35B1E1940814004FA00F0401E10405A
:10018000084310BD8B0910B52C3003F00C03181870
:1001900001F01F0104681F238B4002F01F029C43E3
:1001A00002FA01F12143016010BDCB0D10B50C30F6
:1001B00003F004031818090D01F01F010368072458
:1001C0008C40A34302FA01F11943016010BDDFF82E
:1001D000041481B00A6802430A600968084000906C
:1001E000009801B070477CB500F02EFA00F079F865
:1001F000DFF8E443606840F00400606060688008F5
:1002000010F00100FAD100F086F9DFF8D003DFF832
:10021000D0630168DFF8CC5300F073F900F05BF8AD
:1002200001460B20FFF786FF0B20FFF779FF00F058
:1002300083F800F0FEF80FF208400021D0E9002317
:10024000C7207060CDE90023C820F060B160B161C3
:100250003560304600F020FA0021009101913046CF
:10026000694600F027FBA06ADF4A20F4700040F4E2
:100270008010A062DD484168090C090441F00201C8
:100280004160DB49C1608260016841F001010160A9
:10029000026842F002020260206840F02000206004
:1002A000616841F001016160E86840F00100E860C8
:1002B0004FF08040296841F001012960016A41F452
:1002C00080710162C16841F00101C160026842F0C1
:1002D00001020260FEE7009808680021C0F30220D6
:1002E00037E738B592B008A8282100F009FB03A829
:1002F00000F09CF86C4600210022002384E80E00E8
:100300001021022501240D910F9208950C9408A844
:1003100000F0FAFA0F200390002104910591069154
:10032000079103A800F07CFC002202920095684629
:1003300000F034FD13B030BD38B500BFBEA1AD4CE8
:10034000D1E900238CB002A8CDE9002300F06EF8BB
:1003500007A800F06BF84FF40070FFF738FF082093
:10036000FFF735FF40F2033107910022089207A9F9
:10037000A14800F09FFD9D49A0480A6802400A601C
:100380004FF480750B6823F440530B600A6822F029
:1003900020020A60086820F0400008600A6822F025
:1003A00080020A60086820F4407040F480700860A1
:1003B0000A68934822F4406242F480620A60002294
:1003C0000068FFF78AFF01461220FFF7B3FE1220F4
:1003D000FFF7A6FE0021009101956946204600F036
:1003E000ADFD4FF46020022102900391002204929F
:1003F0000592069502A9204600F0B5FD814D2A46DA
:100400004FF400712046FFF7BDFE00F00BF87E4D63
:100410002A4640F205212046FFF7B4FE00F002F81C
:100420000DB030BD022229462046BEE6142100F060
:1004300067BA18B593B006A8FFF7F8FF0BA82021FC
:1004400000F05EFA01A8FFF7F1FF7048016800F0C4
:1004500058F84FF08044FFF73EFF01461C20FFF79D
:1004600069FE1C20FFF75CFE0021ADF81810002289
:100470004FF4486108910792099206A94FF0804015
:1004800000F09AFD206820F0800020600BAAA1688F
:100490005F480140A1606020E16941F00801E1612D
:1004A0000B9000210C910D910E910F9120464FF46D
:1004B000807100F0C3FDE06920F00400E061606835
:1004C00020F070006060A06820F08000A06008202C
:1004D000FFF77DFE4F49019109220292022103910B
:1004E0000022049201A9444800F0E4FC4A48016853
:1004F00021F440710160026842F40072026014B09D
:1005000010BD41F001010160002200683C4900F08B
:1005100001000090704730B585B06846102100F0AA
:10052000EFF92C483D4D046844F020040460016854
:10053000314C01F0200104910499026842F0040258
:100540000260036803F0040304930499026842F014
:10055000080202600022006800F008000490FF21F9
:100560000498284600F037FF00224FF470412046DF
:1005700000F031FFFF2100F055F8284600F06AFE38
:100580004FF4704100F04EF8204600F063FE30203A
:10059000234900900191012202926946204600F011
:1005A00059FE002200210A2000F05AFF0A2000F024
:1005B00074FF00220021172000F052FF172000F0E6
:1005C0006CFF05B030BD000000E100E018ED00E078
:1005D00000E400E01810024004240140141002401E
:1005E00014000020001400404C2401400800024088
:1005F0008000002000240140000C0140EFBFFFFFFD
:100600000CED00E0080080030900B0031C1002405C
:10061000F8BFFFFF0400040404000140000801408B
:10062000000021100091012201920021029102227A
:1006300003926946704700000000000000000000BF
:10064000000000000000000080B5032000F0FBFE69
:10065000002000F04DFF00F06BFF002002BD30B421
:10066000002513E050F8042BD30744BFA9F1010380
:100670009A18091F042942F8045BFAD213468C0722
:1006800044BF15809B1CC90748BF1D7050F8041B50
:100690000029E7D130BC704738B5040001D10120F2
:1006A00032BD00F014F818B900F00DF800F05DFF4D
:1006B000FFE702206870211D206800F0B0F80120DB
:1006C0006870002032BD002129702046704704F177
:1006D0003C056878704710B50446206801698A07B0
:1006E00015D5C1688A0712D56FF002010161012298
:1006F0002277806910F0030F204602D000F058FFE7
:1007000003E000F056FF00F087F800202077206813
:1007100001694A0715D5C1684A0712D56FF004016F
:10072000016102222277806910F4407F204602D0C6
:1007300000F03EFF03E000F03CFF00F06DF8002009
:100740002077206801690A0715D5C1680A0712D504
:100750006FF00801016104222277C06910F0030FD5
:10076000204602D000F024FF03E000F022FF00F05A
:1007700053F80020207720680169CA0615D5C168A2
:10078000CA0612D56FF01001016108222277C069F4
:1007900010F4407F204602D000F00AFF03E000F092
:1007A00008FF00F039F80020207720680169CA07A7
:1007B00008D5C168CA0705D56FF00101016120465F
:1007C00000F0F8FE206801690A0608D5C1680A062B
:1007D00005D56FF080010161204600F0ECFE206835
:1007E00001694A0608D5C1684A0605D56FF040017F
:1007F0000161204600F0E0FE206801698A060AD502
:10080000C1688A0607D56FF0200101612046BDE866
:10081000104000F0D2BE10BD204600F0CFBEF0B5B3
:10082000DFF878E003681E4C1E4D1F4E1F4FDFF8A7
:1008300080C0704518BFB0F1804F03D0604518BF2D
:10084000B84209D14A6823F07003134370451CBFB6
:10085000B0F1804F604507D0B84218BFB04203D016
:10086000A84218BFA04203D1CA6823F440731343BF
:100870004A6923F080031343036070458B68C362A9
:1008800018BFB0420A68826203D0A84218BFA042D3
:1008900001D10969016301224261F0BD002C0140D0
:1008A0000048014000440140004001400008004071
:1008B0000004004030B500F13C031A78012A01D150
:1008C000022030BD01221A7002245C700268546854
:1008D00024F070045460046865680A681543656014
:1008E0000268946824F08004946002689468486800
:1008F00004439460012159700020187030BD00003D
:10090000002200F05DBE00002DE9F8430646DFF846
:1009100048543078C10748D5686800F00C000428B6
:1009200007D0686800F00C0008280BD16868C10384
:1009300008D52868810338D57068002840F0BE804B
:10094000012067E17068B0F5803F04D1286840F469
:100950008030286014E008B928680AE0B0F5A02FBC
:10096000286806D140F480202860296841F480314D
:1009700005E020F480302860296821F48021296076
:10098000706868B100F036FE04462868810300F103
:10099000958000F02FFE001B6528F6D3032039E177
:1009A00000F028FE04462868810340F1878000F0AB
:1009B00021FE001B6528F6D3F0E700F01BFE001BAC
:1009C000022840F2AA80E9E7306970B1012139605C
:1009D00000F010FE04462868810700F1DC8000F07A
:1009E00009FE001B0228F6D9D8E7386000F002FEA5
:1009F00004462968880765D500F0FCFD001B022825
:100A0000F7D9CBE7086000F0F5FD0446686A810776
:100A100077D500F0EFFD001B0228F7D9BEE708B933
:100A2000286A09E00528286A06D140F004002862F7
:100A3000286A40F0010005E0400840002862286A6A
:100A400020F00400286241F28938F06868B100F0B3
:100A5000D1FD8146286A810700F1AA8000F0CAFD15
:100A6000A0EB09004045F5D398E700F0C3FD8146AF
:100A7000286A810740F19C8000F0BCFDA0EB0900D2
:100A80004045F5D38AE700F0B5FD001B022840F28F
:100A9000A28083E700F0AEFD001B022840F2B58083
:100AA0007CE700F0B9F804462868810140F1B18084
:100AB00000F0A0FD001B0228F6D96FE73078DFF8C0
:100AC000A47281071BD5686810F00C0F09D0686804
:100AD00000F00C0008287FF477AF6868C1033FF589
:100AE00073AF2868810703D5306901287FF428AFE8
:100AF0002968706921F0F80141EAC0012960317864
:100B000008071DD5B069DFF8601200283FF47AAFFE
:100B100001220A6000F06EFD0446686A81077FF5D5
:100B20004CAFDFF838020268D2084FF47A71B2FB9A
:100B3000F1F1009100BF0098411E00280091F9D109
:100B40003078410739D5E8690024C10009D4E86943
:100B500040F08050E8610124E86900F08050009086
:100B60000098DFF80882D8F80000C1051BD4D8F837
:100B7000000040F48070C8F8000000F03BFD8146A2
:100B8000D8F80000C1050ED400F034FDA0EB090038
:100B90006528F5D302E72868716920F0F80040EA7B
:100BA000C1002860ABE7F06801287FF438AF3FE769
:100BB0001CB1E86920F08050E861F06948B36968C9
:100BC00001F00C0108293FF4BBAE02287FF469AFA5
:100BD00000F022F80446286881013FF554AF306ADE
:100BE000B0F5803F05D1E96AB068090940EA011112
:100BF000E9626A68306A716A22F4741202430A4335
:100C00006A60012000F009F80446286881017FF538
:100C100041AF0020BDE8F2830020386600F0EABC56
:100C2000F8B505464C4C2868810712D5400703D516
:100C3000616841F4E06161602878010703D560686C
:100C400040F4605060606168A86821F0F0010143E1
:100C500061602978C80735D5686801281BD12168EB
:100C60008A0320D56168890840EA8100606041F20A
:100C7000893700F0BFFC06466868012815D1606816
:100C800000F00C0004281DD000F0B4FC801BB8421A
:100C9000F5D30320F2BD0228216802D18A01E1D4F4
:100CA00001E08A07DED40120F2BD02282CD1606861
:100CB00000F00C00082805D000F09CFC801BB84216
:100CC000F5D3E6E72878410705D56268E86822F49D
:100CD000E062024362602978080706D561682869E6
:100CE00021F4605141EAC001616000F017F86268C8
:100CF0001F491A4BC2F30312895CC84018600020D8
:100D000000F0F6FB0020F2BD606810F00C0FD9D0A7
:100D100000F070FC801BB842F6D3BAE715491048C2
:100D20000A6802F00C03082B00D0704710B500BF12
:100D300012A4C2F38343D203E35C09D5896A00BFDE
:100D400012A201F00F015843535CB0FBF3F010BD49
:100D500018460949484310BD001002401000002009
:100D600000127A00000042428004424200700040BB
:100D7000181900080410024000093D000203040590
:100D8000060708090A0B0C0D0E0F101001020304D0
:100D900005060708090A0B0C0D0E0F102DE9FC4182
:100DA0000646304D3078C10750D5A8690024C100EF
:100DB00009D4A86940F08050A8610124A86900F016
:100DC000805000900098284F3868C10519D43868C1
:100DD00040F48070386000F00DFC80463868C10532
:100DE0000FD400F007FCA0EB08006528F6D3032021
:100DF00036E000F0FFFBC01B41F28931884217D377
:100E0000F5E7E86910F440701EBF716801F44071A5
:100E1000884210D01549E86901220A60002320F4B5
:100E200040700B60E861C00705D500F0E3FB0746A2
:100E3000E8698107DDD5EA69706822F440720243EF
:100E4000EA611CB1A86920F08050A8613078810760
:100E500005D52A68B06822F4404202432A60002087
:100E6000BDE8F68104100240007000404004424298
:100E700030B500F010F80F2503E030B500F00BF8A6
:100E800003259B00B1FA81F19D408900AC438A4063
:100E90002243026030BD00EB116091FAA1F3B3FA76
:100EA00083F391FAA1F10468704730B5FFF7F3FFBF
:100EB0000425E6E72DE9F0410D4604462E6836028A
:100EC000360C96FAA6F0B0FA80F7FFB236FA07F0C1
:100ED00031D0C0072DD5082F07D34FF00110A7F14F
:100EE0000801884040F0806803E040F2011000FAF9
:100EF00007F86A6841462046FFF7BAFF2869E168AB
:100F00004FEA1822914392FAA2F2B2FA82F290408A
:100F10000843E0606868012818BF092809D1AA6859
:100F200041462046FFF7A9FFEA6841462046FFF701
:100F3000BCFF7F1CCAE70120BDE8F08130B5024646
:100F400001209368DC070CD455684B6825F4807544
:100F50001D4355609468096824F400640C43946050
:100F600030BD002030BD70B583680122DC071DD480
:100F70004B6833B145688C6825F468452B4323439F
:100F800002E0436823F4684343608668094D0B68B8
:100F9000CC682E401E430B6926431E438660C46AFC
:100FA000496824F470040C43C46200E00022104637
:100FB00070BD0000FDFEF1FFF0B5DFF880E20368D0
:100FC000DFF88C42DFF88452DFF87C62DFF874725D
:100FD000DFF86CC2704518BFB0F1804F03D0604598
:100FE00018BFB84209D14A6823F070031343704513
:100FF0001CBFB0F1804F604507D0B84218BFB04267
:1010000003D0A84218BFA04203D1CA6823F440739A
:101010001343036070458A68C26218BFB0420A88F1
:10102000826203D0A84218BFA04201D1097C0163AB
:10103000416941F0010141610120F0BD2DE9F0411C
:101040000B4611460022012BDFF80442DFF8FC5169
:10105000DFF8F461DFF8E48108D0102B3DD0B3F560
:10106000807F3DD0B3F5805F3ED069E0026A5208D0
:1010700052000262036AD0F804E087690A6827F028
:101080007307174323F002020B691A4353084A6897
:10109000404518BFB04242EA430C03D0A84218BFF3
:1010A000A04212D14A692CF0080343EA820222F0DE
:1010B00004038A6843EA820C8A692EF480731A4317
:1010C000CB6922F4007242EA430EC0F804E0876163
:1010D000C9684163C0F820C031E000F034F801E095
:1010E00000F06FF802462BE0026A22F4805202629E
:1010F0004045076A4268C369D1F800E023F4E6433B
:1011000043EA0E23D1F810E027F4005747EA0E37E0
:10111000D1F804E027F4805718BFB04247EA0E37F1
:1011200003D0A84218BFA04204D18C6922F48042A7
:1011300042EA84124260C361C96801640762012205
:101140001046BDE8F08170B5026A3C4E22F01002F4
:101150000262B042026A446883690D6823F4E64380
:1011600043EA05230D6922F0200242EA05124D6888
:1011700022F0100242EA05121CBF334DA84205D0EE
:10118000324EB0421CBF324DA84213D14D6922F0FD
:10119000800242EA85128D6822F0400242EA8512FE
:1011A0008D6924F4806444EA8504CD6924F40064E4
:1011B00044EAC50444608361C96881630262012016
:1011C00070BD70B5026A22F480720262036A4568DB
:1011D000C4690A680E6924F07304144323F400738D
:1011E00043EA06234A68154E23F4807343EA022338
:1011F000B0421CBF144A904205D0144EB0421CBFEE
:10120000134A904213D14A6923F4006343EA8223CC
:101210008A6823F4806343EA82238A6925F480552F
:1012200045EA0215CA6925F4005545EA42154560AC
:10123000C461C968C1630362012070BD002C014014
:10124000000400400008004000400140004401400C
:10125000004801402DE9F843024600200025644B78
:10126000DFF8909101270E68AF403E40BE4240F04B
:10127000AC804C686CB3012C20D0022C23D0032C02
:1012800032D0112C1CD0122C20D0DFF86CE1744528
:101290001CBFDFF868E174451BD0DFF864E17445DA
:1012A0001CBFDFF860E1744513D0DFF85CE17445E2
:1012B0001CBFDFF858E174450BD016E0C86814E095
:1012C000C868001D11E0C86808300EE0C8680C301E
:1012D0000BE0886808B9042007E0012819BF08203E
:1012E00057610820176100E00020B6F5807F03D227
:1012F00094464FEA850E05E0A5F1080402F1040CBE
:101300004FEA840E0F27DCF8008007FA0EF428EA73
:10131000040400FA0EFE4EEA0404CCF800404C68C7
:10132000E40052D5D9F80040DFF8E4E044F00104CD
:10133000C9F800404FEA950CD9F8004004F00104C8
:1013400000944FEA8508009C5EF82C4008F00C08D9
:1013500007FA08F724EA07072E4CA24208BF002428
:101360000ED02D4CA24208BF012409D02B4CA24222
:1013700008BF022404D02A4CA2420CBF0324042438
:1013800004FA08F427434EF82C70F7434C68E40342
:101390001C684CBF34433C401C604C68A4035C6830
:1013A0004CBF34433C405C604C68E4029C684CBFDA
:1013B00034433C409C604C68A40203D5DF683E4344
:1013C000DE6002E0DE683740DF606D1C0F2D7FF6C7
:1013D00049AFBDE8F18302B9090401617047114AC0
:1013E000136803421CBF106000F01EB87047000075
:1013F00000040140181002400000111000001210FB
:1014000000002110000022100000311000003210F6
:101410000800014000080140000C0140001001409C
:10142000001401401404014070470000090102004B
:1014300006D5294A00F00F00104400F8041C70473C
:10144000264B19547047264B19684FF6FF020002CD
:10145000114000F4E06008432249084318607047D7
:1014600038B51F4B1C68C4F30223C3F10704052CD5
:1014700028BF04241D1D072D34BF0023DB1E0125BA
:1014800005FA04F4641E2140994005FA03F35B1E3B
:101490001A401143BDE83440C8E7012200F01F01A3
:1014A000114BFFE78A40400943F82020704710B5F0
:1014B000401EB0F1807F01D3012010BD0B4C606055
:1014C0000F214FF0FF30FFF7B1FF0021A16007208F
:1014D0002060002010BD000018ED00E000E400E0F6
:1014E0000CED00E00000FA0500E100E010E000E093
:1014F00038B50D4D0D4B2A7804464FF47A711868B3
:10150000B1FBF2F2B0FBF2F0FFF7D1FF50B9102CB3
:1015100008D2002221464FF0FF30FFF7A1FFAC6058
:10152000002032BD012032BD040000201000002048
:101530001B4881B0016841F001010160026802F0BE
:10154000010200920099426842F080524260406875
:1015500000F08050009000981248016821F0E0618E
:1015600041F00071016001B0704700680E49884287
:1015700000D0704780B50D48026842F0200202603A
:101580000022006800F02000009000210098372021
:10159000FFF766FFBDE802403720FFF77EBF00007F
:1015A0001810024004000140001400401C100240CA
:1015B000704770477047704770477047704700002A
:1015C00000B500BF130096469446103928BFA0E826
:1015D0000C50FAD85FEA417C28BF0CC048BF40F8E5
:1015E000042BC90728BF20F8022B48BF00F8012BA5
:1015F00000BD000001484068704700BF04000020A3
:1016000038B50446994D0022FF212846FFF7E3FE36
:10161000102C3ED8DFE804F0090C0F1215181B1E21
:10162000362124272A2D3033360001223F212BE09A
:101630000122062128E001225B2125E001224F2121
:1016400022E0012266211FE001226D211CE001221F
:101650007D2119E00122072116E001226F2113E00C
:101660000122772110E001227C210DE001223921A5
:101670000AE001225E2107E00122792104E0012233
:10168000712101E001227F212846BDE83840FFF7A3
:10169000A2BE31BD7047FEE7FEE7FEE7FEE77047FA
:1016A0007047704700F008B97149002008601020A9
:1016B000FFF795BE70476F4B6F4918686F4A002857
:1016C000486C07D11080086840F4A0000860012130
:1016D000196070475080086840F4A00008607047A7
:1016E0006349012008602020FFF779BE2DE9F0430F
:1016F000634A604B5E4F634E6FF0010010605E48BE
:10170000016841F4A0010160002018605B495E4857
:101710000C885E4B04604D881D60046818685C4D41
:10172000241A2C602B685B4D5B4C28685B4D43434F
:1017300023602368D3620A243868594A594B38BB5E
:10174000B1F800C04FF47A709CFBF0F0A64690FB15
:10175000FEFE04FB1E0030604FF0640CB1F8008008
:1017600098FBFCF0A14690FBF9F904FB19002860F6
:10177000A446088890FBF4F090FBFCFC04FB1C00E2
:101780001860A046088890FBF8F804FB1800106069
:101790003868012824D148884FF47A7790FBF7F015
:1017A000A44690FBFCFC04FB1C00306064264888C7
:1017B00090FBF6F00A2790FBF7F704FB1700286070
:1017C0000A26488890FBF4F090FBF6F604FB16001E
:1017D000186048880A2190FBF1F104FB11041460A1
:1017E000BDE8F08370B53049304C314D6FF00100E9
:1017F0000860012226684FF470412846FFF7EBFD90
:1018000006F00306032E15D8DFE806F00E0A0602DE
:1018100000224FF400410AE000224FF4804106E02C
:1018200000224FF4005102E000224FF4805128467C
:10183000FFF7D1FD206800F0030003280ED8DFE891
:1018400000F0020507090F49086805E0134802E0A7
:10185000144800E012480068FFF7D2FE2068401CE0
:101860002060BDE870401348FEF735BF0008014016
:101870007C00002068000020082401408000002037
:101880001000004054000020700000207400002070
:1018900078000020000000206C000020580000208C
:1018A000600000205C000020101400406400002054
:1018B000000C01401400002002494A680878821890
:1018C0004A6070470400002010B50F4A0F491068A5
:1018D00040F00100106053680D480B4053601468DD
:1018E00004401460116821F4802111604FF41F013D
:1018F000506820F4FE00506091600020D0624FF0EC
:101900000061044A116010BD001002400000FFF8A1
:10191000FFFFF6FE08ED00E0000000000000000000
:10192000010203040607080930B450F8041B79B11A
:101930000268436802440830DC0744BFA9F101048F
:10194000E31852F8045B43F8045B091FF9D1ECE794
:1019500030BC704710B5074979441831064C7C44B7
:10196000163404E00A68081D114488470146A14264
:10197000F8D110BD0800000028000000E3ECFFFFD4
:101980007000000014000020000000009DFFFFFF19
:1019900014000000540000000000002000000000BF
:1019A00000F00DF8002801D0FFF7D4FFAFF300805E
:1019B0000020AFF30080FEF716FC00F002F80120D3
:1019C000704700F001B800000746384600F002F802
:1019D000FBE7000080B5AFF30080024A1100182039
:1019E000ABBEFBE7260002000A0000000100000079
:1019F000000000001000000000366E010148804722
:101A000001480047C91800080D1A0008AFF300800C
:101A1000AFF30080FFF7C4FFFFF7FEBFFFF7FEBF85
:101A2000FFF7FEBFFFF7FEBFFFF7FEBFFFF7FEBFEA
:101A3000FFF7FEBFFFF7FEBFFFF7FEBFFFF7FEBFDA
:101A4000FFF7FEBFFFF7FEBFFFF7FEBFFFF7FEBFCA
:101A5000FFF7FEBFFFF7FEBFFFF7FEBFFFF7FEBFBA
:101A6000FFF7FEBFFFF7FEBFFFF7FEBFFFF7FEBFAA
:101A7000FFF7FEBFFFF7FEBFFFF7FEBFFFF7FEBF9A
:101A8000FFF7FEBFFFF7FEBFFFF7FEBFFFF7FEBF8A
:101A9000FFF7FEBFFFF7FEBFFFF7FEBFFFF7FEBF7A
:041AA000FFF7FEBF8F
:0400000508001A0DC8
:00000001FF
