:020000040800F2
:1000000058040020E1100008750D0008770D000865
:10001000790D00087B0D00087D0D00080000000030
:100020000000000000000000000000007F0D00083C
:10003000810D000800000000830D0008850D0008F8
:10004000FD10000801110008051100080911000841
:100050000D110008111100081511000819110008F0
:100060001D11000821110008890D00082511000844
:10007000291100082D110008311100083511000860
:10008000391100083D110008950D0008000000001E
:10009000000000000000000000000000A50D0008A6
:1000A0004111000845110008491100084D110008D0
:1000B000B10D000851110008551100085911000830
:1000C0005D11000861110008651100086911000840
:1000D0006D110008711100087511000879110008F0
:1000E0007D11000881110008851100080000000042
:1000F0000000000000000000000000000000000000
:1001000000000000000000000000000000000000EF
:10011000000000000000000089110008DD0E00084A
:10012000012200F01F01DFF8D4338A40400943F870
:10013000202070470901020007D5DFF8C42300F032
:100140000F00104400F8041C7047DFF8B83319544E
:10015000704700F0070010B5C0F10703052B28BF5A
:100160000423041D072C34BF0020C01E012404FA00
:1001700003F35B1E1940814004FA00F0401E10405A
:10018000084310BDCB0D10B50C3003F00403181854
:10019000090D01F01F01036807248C40A34302FAF4
:1001A00001F11943016010BDD74900E0D74981B082
:1001B0000A6802430A60096808400090009801B08C
:1001C00070470000F8B58CB000F0CAF900F09DF857
:1001D000CF4CA06840F00400A060A068800810F038
:1001E0000100FAD100F031F9DBA0CA4DD0E9006777
:1001F000CDE9006702A800F025F907A800F022F970
:100200004FF40070FFF7D2FF0820FFF7CFFF40F256
:10021000011107910022089207A9BF4800F0CEF90A
:1002200000F06DF801461220FFF784FF1220FFF75F
:1002300077FF0021009101912046694600F002FA03
:10024000012103914FF460200221029000220591C8
:100250000492069202A9204600F009FA616B082078
:1002600060F3040161630022AC492046FFF78AFF76
:1002700000F07FF800F0E5F82020FFF795FF00F090
:100280003EF801463720FFF755FF3720FFF748FFBC
:10029000C7200021ADF800000191C82202926946F2
:1002A0009F4D284600F00CFA286820F08000286056
:1002B000696821F070016960A86820F08000A8607A
:1002C000606840F020006060A06840F00100A0601D
:1002D000E86840F00100E8604FF08040296841F094
:1002E00001012960016A41F480710162C16841F035
:1002F0000101C160026842F001020260FEE7286865
:1003000000220021C0F3022023E738B5854C206885
:1003100020F0F80040F080002060216841F00101E9
:10032000216020688007FCD5616821F0F0016160E0
:10033000606820F4E0606060606820F46050606095
:100340006068800880006060606810F00C0FFBD16E
:10035000754D284600F002FB7448016841F0040125
:100360000160284600F006FB606820F440406060B1
:1003700031BD10B592B005A800F064F80AA820219C
:1003800000F000FB00F05DF80120FFF70DFF614871
:100390000068FFF7B5FF01461C20FFF7CBFE1C20CD
:1003A000FFF7BEFE0021ADF8141000224FF44861A3
:1003B00007910692089205A94FF0804000F080F95D
:1003C0004FF080440AAA206820F080002060A168D5
:1003D00057480140A1606020E16941F00801E161F6
:1003E0000A9000210B910C910D910E9120464FF433
:1003F000807100F0A7F9E06920F00400E061606816
:1004000020F070006060A06820F08000A0600820EC
:10041000FFF7CCFE47490091092201920221029187
:100420000022039269463C4800F0C8F8424801683F
:1004300021F440710160026842F40072026012B05F
:1004400010BD6846142100F09DBA30B585B06846ED
:10045000102100F097FA2D48384D046844F020042C
:10046000046001682C4C01F0200104910499026899
:1004700042F004020260036803F004030493049949
:10048000026842F0080202600022006800F00800E2
:100490000490FF210498284600F039FB00224FF415
:1004A0007041204600F033FBFF2100F04BF8284656
:1004B00000F06CFA4FF4704100F044F8204600F070
:1004C00065FA30201E49009001910122029269468E
:1004D000204600F05BFA002200210A2000F05CFBBD
:1004E0000A2000F076FB00220021172000F054FBC8
:1004F000172000F06EFB05B030BD000000E100E009
:1005000018ED00E000E400E01C100240181002406A
:10051000002401400CED00E0000C014008008003C5
:10052000001400400010024000127A0010E000E0C9
:10053000F8BFFFFF0400040404000140000801406C
:10054000000021100091012201920021029102225B
:1005500003926946704700000000000000000000A0
:1005600080B5032000F00BFB002000F05DFB00F0E5
:100570007BFB002002BD000030B500F010F80F2515
:1005800003E030B500F00BF803259B00B1FA81F1D0
:100590009D408900AC438A402243026030BD00EB9D
:1005A000116091FAA1F3B3FA83F391FAA1F104680F
:1005B000704730B5FFF7F3FF0425E6E72DE9F0417A
:1005C0000D4604462E683602360C96FAA6F0B0FAAE
:1005D00080F7FFB236FA07F031D0C0072DD5082FCB
:1005E00007D34FF00110A7F10801884040F0806860
:1005F00003E040F2011000FA07F86A68414620461D
:10060000FFF7BAFF2869E1684FEA1822914392FA8E
:10061000A2F2B2FA82F290400843E06068680128D2
:1006200018BF092809D1AA6841462046FFF7A9FF4B
:10063000EA6841462046FFF7BCFF7F1CCAE701205D
:10064000BDE8F08130B5024601209368DC070CD488
:1006500055684B6825F480751D435560946809689A
:1006600024F400640C43946030BD002030BD70B5AC
:1006700083680122DC071DD44B6833B145688C6860
:1006800025F468452B43234302E0436823F4684381
:1006900043608668094D0B68CC682E401E430B6989
:1006A00026431E438660C46A496824F470040C43E0
:1006B000C46200E00022104670BD0000FDFEF1FFA4
:1006C000F0B5DFF880E20368DFF88C42DFF884528F
:1006D000DFF87C62DFF87472DFF86CC2704518BF17
:1006E000B0F1804F03D0604518BFB84209D14A68C5
:1006F00023F07003134370451CBFB0F1804F604579
:1007000007D0B84218BFB04203D0A84218BFA042D9
:1007100003D1CA6823F440731343036070458A68A9
:10072000C26218BFB0420A88826203D0A84218BFD2
:10073000A04201D1097C0163416941F0010141619D
:100740000120F0BD2DE9F0410B4611460022012B9E
:10075000DFF80442DFF8FC51DFF8F461DFF8E481F0
:1007600008D0102B3DD0B3F5807F3DD0B3F5805F2E
:100770003ED069E0026A520852000262036AD0F871
:1007800004E087690A6827F07307174323F0020221
:100790000B691A4353084A68404518BFB04242EA01
:1007A000430C03D0A84218BFA04212D14A692CF0D2
:1007B000080343EA820222F004038A6843EA820CB7
:1007C0008A692EF480731A43CB6922F4007242EADC
:1007D000430EC0F804E08761C9684163C0F820C0D7
:1007E00031E000F034F801E000F06FF802462BE051
:1007F000026A22F4805202624045076A4268C36975
:10080000D1F800E023F4E64343EA0E23D1F810E0E8
:1008100027F4005747EA0E37D1F804E027F4805751
:1008200018BFB04247EA0E3703D0A84218BFA04213
:1008300004D18C6922F4804242EA84124260C3618E
:10084000C9680164076201221046BDE8F08170B5F5
:10085000026A3C4E22F010020262B042026A446810
:1008600083690D6823F4E64343EA05230D6922F00A
:10087000200242EA05124D6822F0100242EA0512F7
:100880001CBF334DA84205D0324EB0421CBF324D82
:10089000A84213D14D6922F0800242EA85128D6888
:1008A00022F0400242EA85128D6924F4806444EA11
:1008B0008504CD6924F4006444EAC504446083617E
:1008C000C96881630262012070BD70B5026A22F4BA
:1008D00080720262036A4568C4690A680E6924F07E
:1008E0007304144323F4007343EA06234A68154E45
:1008F00023F4807343EA0223B0421CBF144A90429F
:1009000005D0144EB0421CBF134A904213D14A691D
:1009100023F4006343EA82238A6823F4806343EA72
:1009200082238A6925F4805545EA0215CA6925F4AF
:10093000005545EA42154560C461C968C163036258
:10094000012070BD002C0140000400400008004060
:100950000040014000440140004801404FF47A72D9
:100960000649B0FBF2F0401E486000238B60052072
:1009700008607047024908607047000010E000E01E
:1009800014000020002200F091B900002DE9F84386
:10099000024600200025644BDFF8909101270E6885
:1009A000AF403E40BE4240F0AC804C686CB3012C7E
:1009B00020D0022C23D0032C32D0112C1CD0122C8E
:1009C00020D0DFF86CE174451CBFDFF868E17445A6
:1009D0001BD0DFF864E174451CBFDFF860E17445AB
:1009E00013D0DFF85CE174451CBFDFF858E17445B3
:1009F0000BD016E0C86814E0C868001D11E0C86894
:100A000008300EE0C8680C300BE0886808B9042094
:100A100007E0012819BF082057610820176100E08E
:100A20000020B6F5807F03D294464FEA850E05E09C
:100A3000A5F1080402F1040C4FEA840E0F27DCF83C
:100A4000008007FA0EF428EA040400FA0EFE4EEACB
:100A50000404CCF800404C68E40052D5D9F80040BA
:100A6000DFF8E4E044F00104C9F800404FEA950CD7
:100A7000D9F8004004F0010400944FEA8508009C76
:100A80005EF82C4008F00C0807FA08F724EA07077C
:100A90002E4CA24208BF00240ED02D4CA24208BF0B
:100AA000012409D02B4CA24208BF022404D02A4CB6
:100AB000A2420CBF0324042404FA08F427434EF88E
:100AC0002C70F7434C68E4031C684CBF34433C4033
:100AD0001C604C68A4035C684CBF34433C405C60C1
:100AE0004C68E4029C684CBF34433C409C604C68BA
:100AF000A40203D5DF683E43DE6002E0DE683740D3
:100B0000DF606D1C0F2D7FF649AFBDE8F18302B9A0
:100B1000090401617047114A136803421CBF106049
:100B200000F01EB870470000000401401810024099
:100B3000000011100000121000002110000022100F
:100B40000000311000003210080001400008014090
:100B5000000C014000100140001401401404014049
:100B6000704700000901020006D5294A00F00F0075
:100B7000104400F8041C7047264B19547047264B4C
:100B800019684FF6FF020002114000F4E0600843CC
:100B9000224908431860704738B51F4B1C68C4F3DE
:100BA0000223C3F10704052C28BF04241D1D072DB3
:100BB00034BF0023DB1E012505FA04F4641E214026
:100BC000994005FA03F35B1E1A401143BDE8344017
:100BD000C8E7012200F01F01114BFFE78A404009DE
:100BE00043F82020704710B5401EB0F1807F01D33C
:100BF000012010BD0B4C60600F214FF0FF30FFF75C
:100C0000B1FF0021A16007202060002010BD00007E
:100C100018ED00E000E400E00CED00E00000FA0553
:100C200000E100E010E000E038B50D4D0D4B2A78F2
:100C300004464FF47A711868B1FBF2F2B0FBF2F09F
:100C4000FFF7D1FF50B9102C08D2002221464FF0F7
:100C5000FF30FFF7A1FFAC60002032BD012032BDA4
:100C600008000020140000200E4881B0016841F007
:100C700001010160026802F00102009200994268DD
:100C800042F080524260406800F08050009000982E
:100C90000548016821F0E06141F00071016001B098
:100CA000704700BF181002400400014000B500BFAB
:100CB000130096469446103928BFA0E80C50FAD885
:100CC0005FEA417C28BF0CC048BF40F8042BC9072D
:100CD00028BF20F8022B48BF00F8012B00BD000000
:100CE00038B50446A14D0022FF212846FFF70FFF2B
:100CF000102C3ED8DFE804F0090C0F1215181B1E4B
:100D0000362124272A2D3033360001223F212BE0C3
:100D10000122062128E001225B2125E001224F214A
:100D200022E0012266211FE001226D211CE0012248
:100D30007D2119E00122072116E001226F2113E035
:100D40000122772110E001227C210DE001223921CE
:100D50000AE001225E2107E00122792104E001225C
:100D6000712101E001227F212846BDE83840FFF7CC
:100D7000CEBE31BD7047FEE7FEE7FEE7FEE77047F7
:100D80007047704700F020B97949002008601020B2
:100D9000FFF7C1BE7748784A6FF002010160C06C6E
:100DA000108070477249012008602020FFF7B3BE11
:100DB0002DE9F041714A724DDFF8C8C16FF00100B2
:100DC000106040F614237048016841F4A0010160EE
:100DD0006E4869490360B1F900406D4B2C606D4C61
:100DE00026681E6006682868361A26606A486B4EB8
:100DF0003768DCF80050D0F800E0D0F8008005EB50
:100E00004E056F4307EBD777654D7F1008FB07F75B
:100E10002F603668DCF80070D0F800C00068A7EBDF
:100E20004C077E4306EBD6765E4F761046433E6017
:100E300024682D681B683E685B4807686C4306FBA6
:100E40001344E41904600368494E002B44BF002496
:100E500004600568554C40F67F439D42C8BF03605F
:100E60000068534B534DD062534A306838B902275B
:100E70002F60052020600820186000201060306876
:100E8000012829D1B1F900604FF47A7096FBF0F691
:100E90000A270A2096FBF7F700FB17662E606426E8
:100EA000B1F9005095FBF6F5844695FBFCFC00FB80
:100EB0001C5525600A26B1F9004094FBF0F494FB20
:100EC000F6F600FB16441C600A23B1F9001091FBF2
:100ED000F3F300FB13101060BDE8F08170B53749E3
:100EE000374C384D6FF001000860012226684FF43E
:100EF00070412846FFF70BFE721006EB92708010CF
:100F0000A6EB8006032E15D8DFE806F00E0A0602CF
:100F100000224FF400410AE000224FF4804106E035
:100F200000224FF4005102E000224FF48051284685
:100F3000FFF7EDFD2068411000EB91729210A0EBDD
:100F4000820003280DD8DFE800F0020406081948E3
:100F500004E0164802E0164800E017480068FFF772
:100F6000BFFE2068401C206070BD000000080140EA
:100F70000400002000240140500000201000004028
:100F8000340000203C0000200824014030000020F4
:100F90004C0000203800002040000020000000200D
:100FA00044000020480000202C0000201C000020ED
:100FB0002000002018000020240000201014004011
:100FC00028000020000C014002494A680878821875
:100FD0004A6070470800002010B50F4A0F4910689A
:100FE00040F00100106053680D480B4053601468D6
:100FF00004401460116821F4802111604FF41F0136
:10100000506820F4FE00506091600020D0624FF0E4
:101010000061044A116010BD001002400000FFF89A
:10102000FFFFF6FE08ED00E030B501688468421865
:10103000416802EB5103C9070BD54C4409E012F992
:10104000011B12F8015B002904F8015B05D5491C5E
:10105000F9D19A42F3D10C3030BD491EF1D5F8E7F1
:1010600010B5074979441831064C7C44163404E025
:101070000A68081D114488470146A142F8D110BDF5
:101080000800000014000000A1FFFFFF00010000A5
:101090002C0000000000002000F00DF8002801D016
:1010A000FFF7DEFFAFF300800020AFF30080FFF713
:1010B00089F800F002F80120704700F001B8000044
:1010C0000746384600F002F8FBE7000080B5AFF3B2
:1010D0000080024A11001820ABBEFBE72600020088
:1010E0000148804701480047D90F0008F110000867
:1010F000AFF30080AFF30080FFF7CEFFFFF7FEBF36
:10110000FFF7FEBFFFF7FEBFFFF7FEBFFFF7FEBF13
:10111000FFF7FEBFFFF7FEBFFFF7FEBFFFF7FEBF03
:10112000FFF7FEBFFFF7FEBFFFF7FEBFFFF7FEBFF3
:10113000FFF7FEBFFFF7FEBFFFF7FEBFFFF7FEBFE3
:10114000FFF7FEBFFFF7FEBFFFF7FEBFFFF7FEBFD3
:10115000FFF7FEBFFFF7FEBFFFF7FEBFFFF7FEBFC3
:10116000FFF7FEBFFFF7FEBFFFF7FEBFFFF7FEBFB3
:10117000FFF7FEBFFFF7FEBFFFF7FEBFFFF7FEBFA3
:10118000FFF7FEBFFFF7FEBFFFF7FEBF000AFD003F
:101190000001FD000001F9000010FC0002366E01A4
:0211A000C60087
:04000005080010F1EE
:00000001FF
